{
  "contractName": "IDRegistration",
  "abi": [
    {
      "inputs": [],
      "payable": false,
      "stateMutability": "nonpayable",
      "type": "constructor"
    },
    {
      "constant": false,
      "inputs": [
        {
          "internalType": "string",
          "name": "Personal_ID",
          "type": "string"
        }
      ],
      "name": "register",
      "outputs": [],
      "payable": false,
      "stateMutability": "nonpayable",
      "type": "function"
    },
    {
      "constant": true,
      "inputs": [
        {
          "internalType": "string",
          "name": "Personal_ID",
          "type": "string"
        }
      ],
      "name": "viewAddress",
      "outputs": [
        {
          "internalType": "address",
          "name": "",
          "type": "address"
        }
      ],
      "payable": false,
      "stateMutability": "view",
      "type": "function"
    }
  ],
  "bytecode": "0x608060405234801561001057600080fd5b5033600160006101000a81548173ffffffffffffffffffffffffffffffffffffffff021916908373ffffffffffffffffffffffffffffffffffffffff160217905550610427806100616000396000f3fe608060405234801561001057600080fd5b50600436106100365760003560e01c8063cd4eeaf71461003b578063f2c298be14610136575b600080fd5b6100f46004803603602081101561005157600080fd5b810190808035906020019064010000000081111561006e57600080fd5b82018360208201111561008057600080fd5b803590602001918460018302840111640100000000831117156100a257600080fd5b91908080601f016020809104026020016040519081016040528093929190818152602001838380828437600081840152601f19601f8201169050808301925050505050505091929192905050506101f1565b604051808273ffffffffffffffffffffffffffffffffffffffff1673ffffffffffffffffffffffffffffffffffffffff16815260200191505060405180910390f35b6101ef6004803603602081101561014c57600080fd5b810190808035906020019064010000000081111561016957600080fd5b82018360208201111561017b57600080fd5b8035906020019184600183028401116401000000008311171561019d57600080fd5b91908080601f016020809104026020016040519081016040528093929190818152602001838380828437600081840152601f19601f820116905080830192505050505050509192919290505050610283565b005b600080826040518082805190602001908083835b602083106102285780518252602082019150602081019050602083039250610205565b6001836020036101000a038019825116818451168082178552505050505050905001915050908152602001604051809103902060009054906101000a900473ffffffffffffffffffffffffffffffffffffffff169050919050565b80600073ffffffffffffffffffffffffffffffffffffffff166000826040518082805190602001908083835b602083106102d257805182526020820191506020810190506020830392506102af565b6001836020036101000a038019825116818451168082178552505050505050905001915050908152602001604051809103902060009054906101000a900473ffffffffffffffffffffffffffffffffffffffff1673ffffffffffffffffffffffffffffffffffffffff161461034657600080fd5b336000836040518082805190602001908083835b6020831061037d578051825260208201915060208101905060208303925061035a565b6001836020036101000a038019825116818451168082178552505050505050905001915050908152602001604051809103902060006101000a81548173ffffffffffffffffffffffffffffffffffffffff021916908373ffffffffffffffffffffffffffffffffffffffff160217905550505056fea265627a7a7231582035bec77fcf5579f12ab673856dcfdf4acd3fd967658edd7b2492e404fe9809c064736f6c63430005100032",
  "source": "pragma solidity >=0.5.0 <0.7.0;\n\n\ncontract IDRegistration{\n    mapping (string => address) Registrar;\n    address owner;\n\n\n    constructor( ) public{\n        owner =msg.sender;\n    }\n    \n    modifier registerRestriction(string memory Personal_ID){\n        require(Registrar[Personal_ID]==address(0));\n        _;\n    }\n    \n    function register (string memory Personal_ID) registerRestriction(Personal_ID) public {\n        Registrar[Personal_ID]=msg.sender;\n    }\n    \n    function viewAddress(string memory Personal_ID) view public returns(address){\n        return (Registrar[Personal_ID]);\n    }\n    \n\n}",
  "sourcePath": "/Users/yuanboli/Documents/GitHub/pet-shop-box-master/Functional_Dapp/pet-shop-box-master/contracts/IDRegistration.sol",
  "compiler": {
    "name": "solc",
    "version": "0.5.16+commit.9c3226ce.Emscripten.clang"
  },
  "schemaVersion": "3.2.3",
  "updatedAt": "2021-08-23T12:27:59.065Z",
  "networkType": "ethereum",
  "devdoc": {
    "methods": {}
  },
  "userdoc": {
    "methods": {}
  }
}